:020000040800F2
:10000000A0730020C51C00082D1D00082D1D000830
:100010002D1D00082D1D00082D1D000800000000EA
:100020000000000000000000000000002D1D00087E
:100030002D1D000800000000D9550008F55C0008DF
:100040002D1D00082D1D00082D1D00082D1D000868
:100050002D1D00082D1D00082D1D00082D1D000858
:100060002D1D00082D1D00082D1D00082D1D000848
:100070002D1D00082D1D00082D1D00082D1D000838
:100080002D1D00082D1D00082D1D00082D1D000828
:100090002D1D00082D1D00082D1D00082D1D000818
:1000A0002D1D00082D1D00082D1D00082D1D000808
:1000B0002D1D00082D1D00082D1D00082D1D0008F8
:1000C0002D1D00082D1D00082D1D00082D1D0008E8
:1000D0002D1D00082D1D00082D1D00082D1D0008D8
:1000E0002D1D00082D1D00082D1D00082D1D0008C8
:1000F0002D1D00082D1D00082D1D00082D1D0008B8
:100100002D1D00082D1D00082D1D00082D1D0008A7
:100110002D1D00082D1D00082D1D00082D1D000897
:100120002D1D00082D1D00082D1D00082D1D000887
:100130002D1D00082D1D00082D1D00082D1D000877
:100140002D1D00082D1D00082D1D00082D1D000867
:100150002D1D00082D1D00082D1D00082D1D000857
:100160002D1D00082D1D00082D1D00082D1D000847
:100170002D1D00082D1D00082D1D00082D1D000837
:100180002D1D00082D1D000880B400AF0C4A0D4B3A
:100190001A600B4BC8330B4A53600B4B084A1A606A
:1001A000094B1B6800221A60074B1B6800225A602B
:1001B000054B1B6800229A60BD465DF8047B7047C2
:1001C000400400200C0500200805002080B500AF89
:1001D0000E4B1B78DBB2012B10D10D4B1B78012B82
:1001E00001D101F0A7FD0B4B1B78DBB2012B01D134
:1001F00001F080FB054B00221A7006E0034B1B78D0
:10020000DBB2013BDAB2014B1A7080BD150500204C
:10021000980900201605002080B500AF154B164A3E
:100220001A60164B07221A60154A154B1B6843F0DB
:100230007F431360134A134B1B686FEA03436FEA53
:100240001343136000F0AAFE04F0B2FDFFF79CFF19
:100250000D4B1B78DBB20133DAB20B4B1A700B4833
:10026000002144F240020A4B01F00AFC084805F064
:10027000A3F980BD14E000E03F90020010E000E030
:100280001CED00E020ED00E015050020ED5E00080B
:100290003809002080B500AF094B0A4A1A60084BA4
:1002A0001B68094A1360064B1B6801225A71044BF4
:1002B0001B68184601F09EF9FFF788FF80BD00BF5C
:1002C00048090020500500204409002090B587B05F
:1002D00000AF0346FB71FA796D4913465B00134486
:1002E000DB000B445B68FB60FB68002B00D1CCE0BB
:1002F000684B1B78DBB20133DAB2664B1A70664B7F
:100300001B68002B09D1FA7913465B001344DB000C
:100310005F4A1344604A1360B5E05F4B1B687B6122
:10032000FB683B61ABE03A697B695B68D31A3B6170
:100330003B69002B7CDA7B695B69002B28D07B69E9
:100340005969FA7913465B001344DB00504A1344A1
:100350000B61FA797B6959694D4813465B00134478
:10036000DB00034410335960FA79494913465B00B6
:100370001344DB000B4410337A691A60FA79134690
:100380005B001344DB00424A1A447B695A611DE05A
:10039000FA79414B19683E4813465B001344DB0071
:1003A0000344103319603C4B1968FA7913465B001B
:1003B0001344DB00364A13444B61FA7913465B0061
:1003C0001344DB00324A1344334A1360FA79F97953
:1003D0002F480B465B000B44DB00034410331B68C3
:1003E00059683B6919442A4813465B001344DB00F3
:1003F00003445960FA79264913465B001344DB0035
:100400000B4410331968FA79214813465B001344F2
:10041000DB00034410331B685868FA791C4C134600
:100420005B001344DB0023445B68C31A4B602AE083
:100430003B69002B20DB7B691B69002B1CD1FA79FF
:10044000134913465B001344DB000B4410337A69F5
:100450005A60FA7913465B001344DB000C4A1A44D5
:100460007B691A61FA793969094813465B001344BC
:10047000DB000344596006E07B691B697B617B6993
:10048000002B7FF450AFFFF7A1FE1C37BD4690BD97
:1004900018050020150500204805002080B584B00F
:1004A00000AF0346FB71FA7913465B001344DB008F
:1004B0002C4A1344FB602C4B1B78DBB20133DAB2BD
:1004C000294B1A70FB685B69002B07D1FB681B691D
:1004D000002B03D1254B00221A603DE0FB685B69CD
:1004E000002B14D1FB681B69204A13601F4B1B684B
:1004F00000225A61FB681B69FA6812695168FA6840
:1005000052680A445A60FB6800221A6124E0FB68C2
:100510001B69002B07D1FB685B6900221A61FB682D
:1005200000225A6118E0FB685B69FA6812691A6177
:10053000FB681B69FA6852695A61FB681B69FA68B3
:1005400012695168FA6852680A445A60FB680022CE
:100550001A61FB6800225A61FFF738FE1037BD466A
:1005600080BD00BF180500201505002048050020AB
:1005700080B586B000AFB9607A603B600346FB731C
:10058000FB7B002B04D0FB7B012B01D0FF237BE006
:100590003B68002B01D1FF2376E03D4B1B78DBB29B
:1005A0000133DAB23A4B1A700023FB7566E0FB7D2B
:1005B000012202FA03F31A46364B1B681340002B44
:1005C00059D1FB7D012202FA03F31A46314B1B6815
:1005D0001343304A1360FFF7F9FDFA7D2E491346A5
:1005E0005B001344DB000B44FA7D1A70FA7D2A4944
:1005F00013465B001344DB000B44FA7B5A70FA7D10
:10060000254913465B001344DB000B4401229A701A
:10061000FA7D214913465B001344DB000B44BA68A2
:100620005A60FA7D1C4913465B001344DB000B44FF
:1006300008337A681A60FA7D174913465B00134441
:10064000DB000B4408333A685A60FA7D12491346BE
:100650005B001344DB000B44103300225A60FA7D28
:100660000D4913465B001344DB000B44103300229A
:100670001A60FB7D08E0FB7D0133FB75FB7D012BE0
:1006800095D9FFF7A3FDFF2318461837BD4680BD57
:10069000150500204C0500201805002080B582B00B
:1006A00000AF0346FB71FB79012B01D9012325E043
:1006B000FB79012202FA03F31A46124B1B6813401E
:1006C000002B01D1012319E0FA790F4913465B0091
:1006D0001344DB000B449B78002B01D100230DE079
:1006E000FA79094913465B001344DB000B440022EE
:1006F0009A70FB791846FFF7E9FD00231846083782
:10070000BD4680BD4C0500201805002080B582B094
:1007100000AF1B4B1B687B6027E07B685B78002B7E
:100720000BD17B681B781846FFF7B8FE7B68012267
:100730009A707B68DB68984714E07B685B78012BD4
:1007400010D17B681B781846FFF7A8FE7B689A6873
:100750007B685A607B681B781846FFF7B7FD7B689B
:10076000DB689847064B1B687B607B68002B03D0D7
:100770007B685B68002BD0D00837BD4680BD00BFCA
:100780004805002080B500AF074B1B78DBB2012B7A
:1007900006D9064B01221A70054B01221A7001E09E
:1007A000FFF7B4FF80BD00BF1505002098090020A9
:1007B0009A09002080B582B000AF0120012101F02C
:1007C000FBFB05233B6000233B710123FB713B4690
:1007D0000348194604F07AFC0837BD4680BD00BFC7
:1007E0000000024080B582B000AF0023FB710B48CF
:1007F000012104F0F9FC0346002B01D10123FB7118
:100800000648042104F0F0FC0346002B01D101232B
:10081000FB71FB7918460837BD4680BD00000240D9
:1008200080B500AF01F006FB03480021034A044BEA
:1008300001F026F980BD00BF450800080100040052
:10084000581B002080B586B000AF786000237B6124
:100850004FF47A7004F05CF902F0C6F936480021D2
:10086000364A374B01F00CF90346FB740020002197
:1008700004F030FAFB7C184601F094F9314B002269
:100880001A70314B00221A703CE07B69002B05D1B5
:100890002E4B0F221A8001237B6105E02B4B40F287
:1008A0002B121A8000237B6100F06EF900200021DA
:1008B00004F010FA26480021204A264B01F0E0F807
:1008C0000346BB74244800211C4A244B01F0D8F88D
:1008D00003467B7422480021184A224B01F0D0F8CD
:1008E00003463B740020002104F0F4F9BB7C184659
:1008F00001F058F97B7C184601F054F93B7C18460E
:1009000001F050F90F4B1B78022B03D80E4B1B78CC
:10091000022BBAD914480021084A144B01F0B0F850
:100920000346FB730020002104F0D4F9FB7B18463A
:1009300001F038F992E700BF410A00080100040005
:10094000582B00205E6B0020590B00205A0B002012
:10095000F90B0008583B0020CD0D0008584B002033
:10096000B10E0008585B002071090008586B002088
:1009700090B58FB002AF78602E4A07F1180307CA0E
:1009800003C31A800233120C1A702B4B07F10804B0
:100990000FCB07C42380294B1B78012B02D93123AD
:1009A000FB7301E03223FB7307F10802002300937D
:1009B00064206E214FF6FF7303F090FE00237B62EC
:1009C0000023FB620023BB62FB6A9BB2DB0098B290
:1009D000BB6A9BB21B0199B207F118027B6A1344F0
:1009E0001A78002300934FF6FF7303F01DFE7B6A15
:1009F00001337B627B6A092B01DD00237B62FB6A8A
:100A00000133FB62FB6A272B04DD0023FB62BB6A18
:100A10000133BB62BB6A0E2B04DD002003F0A4FC93
:100A20000023BB62002000210022282304F0A8F844
:100A3000CAE700BF946A0008A06A00085E6B002045
:100A400090B589B002AF78604E4B07F108040FCB28
:100A500007C4238002341B0C2370002003F084FCA5
:100A60004FF6FF73009320202B212C222C2303F020
:100A700049FD002300932B2036211622162303F074
:100A800041FD4FF6FF73009320204C210B222C23B5
:100A900003F038FD4FF6FF730093622041212C22B2
:100AA000372303F02FFD002300936D204C211622E5
:100AB000212303F027FD4FF6FF730093A42041216B
:100AC0000B22372303F01EFD4FF6FF730093AF2078
:100AD0004C210B220B2303F015FD4FF6FF730093FF
:100AE000BA2057210B220B2303F00CFD4FF6FF73A6
:100AF0000093C52062210B220B2303F003FD4FF668
:100B0000FF730093D02041210B22372303F0FAFC1E
:100B10004FF6FF730093F12041212C220B2303F0A9
:100B2000F1FC4FF6FF730093F1204C210B2221239F
:100B300003F0E8FC4FF6FF730093F1206D212C22A7
:100B40000B2303F0DFFC4FF6FF73009340F2071016
:100B5000572116220B2303F0D5FC4FF6FF730093A9
:100B60004FF4897062210B220B2303F0CBFC07F1B9
:100B700008020023009320208E214FF6FF7303F01C
:100B8000ADFDFEE7B06A000880B584B002AF194B36
:100B90001B88FB800B237B71002003F0E5FB7B7936
:100BA0009BB2FA881046194608224FF6FF7303F0ED
:100BB000DFFC4FF6FF73009300200021082228235A
:100BC00003F0A0FC4FF6FF73009340F237100021B2
:100BD0000822282303F096FC4FF6FF7300939E2013
:100BE00000210222F02303F08DFC00F0C1F8083749
:100BF000BD4680BD5A0B002080B588B002AF78603A
:100C0000544B1B88FB820B23BB820123FB74012303
:100C1000BB74FB8A3B82BB8AFB81FB7C012B03D12B
:100C2000FB8A0233FB8202E0FB8A023BFB82BB7C35
:100C3000012B03D1BB8A0133BB8202E0BB8A013B9B
:100C4000BB82BB8A072B04D1BB7C002B01D10123C3
:100C5000BB74BB8AE72B04D1BB7C012B01D10023E1
:100C6000BB74FB8A0F2B26D1FB7C002B23D13A4B84
:100C70001B781846002105F089F8384B1B787B73E8
:100C8000354B1B78184605F0F5F87B7BDA1FBB8ADD
:100C90009A4207DABA8A7B7B2F339A4202DA01231F
:100CA000FB7408E02E4B1B780133DAB22C4B1A7020
:100CB00000F05EF8FEE7FB8A40F22F12934226D145
:100CC000FB7C012B23D1274B1B781846002105F014
:100CD0005DF8254B1B783B73224B1B78184605F0BB
:100CE000C9F83B7BDA1FBB8A9A4207DABA8A3B7B98
:100CF0002F339A4202DA0023FB7408E01B4B1B7867
:100D00000133DAB2194B1A7000F032F8FEE73A8A72
:100D1000FB89104619460822002303F029FC00F045
:100D200027F8FA8ABB8A1046194608224FF6FF7345
:100D300003F01EFC4FF6FF7300939E200021022259
:100D4000F02303F0DFFB002000210022042303F046
:100D500017FF5EE75A0B0020580B00205C6B002049
:100D6000590B00205F6B00205D6B00205E6B002044
:100D700080B584B002AF124B1B781A463B1D184653
:100D8000104901F0E3FD104B1B781A463B4618460C
:100D90000C4901F0DBFD3A1D002300938A200A2153
:100DA0004FF6FF7303F09AFC3A4600230093AA2003
:100DB0000A214FF6FF7303F091FC0837BD4680BD52
:100DC0005E6B0020C06A0008590B002080B588B017
:100DD00002AF786000237B6100233B610023FB812D
:100DE0007B693B61012001F0B5F80346FB81FB897B
:100DF00040F6B83293421ED97B69043B7B617B6924
:100E0000002B02DC00237B6137E03B699AB20023B0
:100E10000093002011460822282303F073FB7B690E
:100E20009AB24FF6FF730093002011460822282340
:100E300003F068FB21E0FB89B3F57A7F1DD27B6963
:100E400004337B617B69C62B02DDC7237B6114E021
:100E50003B699AB200230093002011460822282300
:100E600003F050FB7B699AB24FF6FF7300930020AA
:100E700011460822282303F045FB0B4B1B7818462C
:100E8000002104F083FF7B69DAB2084B1A70064B2D
:100E90001B78184604F0EEFF0020002100220A23F0
:100EA00003F06EFE9CE700BF580B00205C6B002037
:100EB00080B588B002AF786000237B6100233B617E
:100EC0000023FB817B693B61002001F043F803466E
:100ED000FB81FB8940F6B832934220D97B69043B01
:100EE0007B617B69002B02DC00237B613BE03B697B
:100EF0009AB20023009340F23710114608222823AB
:100F000003F000FB7B699AB24FF6FF73009340F247
:100F1000371011460822282303F0F4FA23E0FB8956
:100F2000B3F57A7F1FD27B6904337B617B69C62B63
:100F300002DDC7237B6116E03B699AB20023009370
:100F400040F2371011460822282303F0DBFA7B69B0
:100F50009AB24FF6FF73009340F237101146082201
:100F6000282303F0CFFA0B4B1B781846002104F01E
:100F70000DFF7B69DAB2084B1A70064B1B781846D6
:100F800004F078FF0020002100220A2303F0F8FD7E
:100F900098E700BF5F6B00205D6B002080B485B0D8
:100FA00000AF1C4B00221A701B4BBB601B4B7B60BD
:100FB0000023FB7319E0BB68FA7B9A71BB680322BC
:100FC0005A71BB687A685A62FB7B154AFF21D1547B
:100FD000FB7B144AFF21D154BB682C33BB607B6878
:100FE0002C337B60FB7B0133FB73FB7B0F2BE2D944
:100FF000FB7B0C4AFF21D154BB68FA7B9A71BB681A
:1010000000225A62084B044A1A601437BD465DF844
:10101000047B7047606B0020500500207C05002099
:10102000580900207C6B00203C09002080B485B06A
:1010300000AF03463960FB710023BB73194B1B786B
:10104000FB7321E0BB7B7B73BA7BFB7B1344DA0F22
:1010500013445B10BB73BB7B134AD35CFA799A428F
:1010600004D13B68BA7B1A70012315E0BB7B0E4AA2
:10107000D35CFA799A4204D2BB7BFB737B7BBB7354
:1010800002E0BB7B0133BB73BA7BFB7B9A42D9D1B5
:101090003B68BA7B1A70002318461437BD465DF8CA
:1010A000047B7047606B00207C6B002080B485B0AF
:1010B00000AF0346FB71FB795B09FB73FB7903F01F
:1010C0001F03BB73FB7B404A52F82330BB60BB68F5
:1010D000002B6AD0BB7BDB087B737B7BDB00FF22B2
:1010E00002FA03F31A46BB681340002B53D07B7BF4
:1010F000DB00F02202FA03F31A46BB681340002B10
:101100001FD0BB7B3B7315E097F90C30012202FA2C
:1011100003F31A46BB681340002B06D0FB7B5B0130
:10112000DAB23B7B1344DBB247E03B7BDBB2013BF3
:10113000DBB23B7397F90C207B7BDB0004339A42D4
:10114000E2DABB7B03F00403002B05D0BB7B43F04A
:101150000303DBB2043BBB73BB7B3B7315E097F926
:101160000C30012202FA03F31A46BB681340002B2D
:1011700006D0FB7B5B01DAB23B7B1344DBB21CE0A5
:101180003B7BDBB2013BDBB23B7397F90C207B7BF3
:10119000DB009A42E3DA7B7BDB00DBB2013BBB7313
:1011A0007B7B5A1E7A73002B97D11F23BB73FB7B6B
:1011B0005A1EFA73002B85D1FF2318461437BD46FB
:1011C0005DF8047B704700BF786B002080B485B069
:1011D00000AF0346FB710023BB730023BB60FB79A8
:1011E0005B09BB730023FB730AE0FB7B012202FA5D
:1011F00003F31A46BB681343BB60FB7B0133FB73ED
:10120000FB7903F01F03DBB2FA7B9A42EDD3BB7B81
:10121000204A52F82330BA681340BB60FB79FB7355
:1012200025E0FB7B03F01F03DBB2002B0DD1FA7B23
:10123000FB799A4209D0BB7B5A1CBA731946154AEE
:10124000BB6842F821300023BB60FB7B124AD35CB1
:10125000FF2B09D0FB7B03F01F03012202FA03F3EB
:101260001A46BB681343BB60FB7B0133FB730B4B1C
:101270001B78FA7B9A42D4D3BB7B5A1CBA731946AB
:10128000044ABB6842F821301437BD465DF8047B40
:10129000704700BF786B002058090020606B002069
:1012A00080B483B000AF0346FB71FB795B09DBB20E
:1012B0001A460A4B53F82230FA7902F01F02012134
:1012C00001FA02F21340002B01D1002300E00123B8
:1012D00018460C37BD465DF8047B7047786B0020DC
:1012E00080B485B000AF03460A46FB711346BB715C
:1012F000FB795B09DBB21A46124B53F82230FB60D4
:10130000FB7903F01F03012202FA03F3DB431A46C1
:10131000FB681340FB60BA79FB7903F01F0302FA04
:1013200003F31A46FB681343FB60FB795B09DBB2EE
:101330001946044AFB6842F821301437BD465DF86F
:10134000047B7047786B002080B584B000AF034603
:10135000FB71FA7907F10E0310461946FFF766FE96
:101360000346002B39D1224B1B78FB7317E0FB7B24
:10137000FA7B013A1F49895C1E4AD154FB7BFA7BF8
:10138000013A1D49895C1C4AD154FB7BFA7B013A26
:101390001A49895C194AD154FB7B013BFB73BB7B27
:1013A000FA7B9A42E3D8BB7B1946124AFB79535425
:1013B000BB7B1A46104B01219954BB7B1A460F4B3D
:1013C000FF2199540A4B1B780133DAB2084B1A708B
:1013D000BB7B1846FFF7FAFE06E0BB7B064AD25CF1
:1013E0000132D1B2044AD1541037BD4680BD00BF8E
:1013F000606B00207C6B0020646B0020580900208B
:1014000080B584B000AF0346FB71FA7907F10E0393
:1014100010461946FFF70AFEBB7B1D4AD25C013A13
:10142000D1B21B4AD154BB7B1A46194B9B5C002B93
:101430002AD1BB7BFB7317E0FB7BFA7B013215499A
:10144000895C144AD154FB7BFA7B01321049895CD8
:101450000F4AD154FB7BFA7B01320F49895C0E4A5B
:10146000D154FB7B0133FB73FA7B0C4B1B78013BA4
:101470009A42E1DB094B1B78013BDAB2074B1A7049
:10148000BB7B1846FFF7A2FE1037BD4680BD00BFEC
:10149000646B00207C6B002058090020606B0020EA
:1014A00080B586B000AF78607B681B79FB747B6881
:1014B00000225A71484B1B687B617B691B79FA7C5F
:1014C0009A421ED17A697B689A421AD07B69002BB6
:1014D00017D0424BD3E90001414BD3E90023994295
:1014E00008BF90420DD27B695B8998B24FF0000132
:1014F0003B4BD3E90023121843EB01033749C1E901
:101500000023FA7C07F10B0310461946FFF78EFD06
:10151000FB7A1846FFF7C4FE0346012B11D1FB7A74
:101520001A46304B9B5C1A462C2303FB02F32E4ACF
:1015300013447B61FB7A1A467B689979294B99544D
:1015400034E0FB7A1A467B689979264B9954FB7AEA
:101550001846FFF7ABFD0346BB74FB7A1846012122
:10156000FFF7BEFEBB7CFF2B16D1204B1B687B61B7
:101570001F4B01221A707B69002B03D11B4A7B6829
:10158000136025E07B687A695A627B697A689A629F
:10159000164A7B6813601BE0BB7C124AD35C1A4678
:1015A0002C2303FB02F3104A13447B617B695B6AC3
:1015B000FB607B68FA685A627B697A685A627B686A
:1015C0007A699A62FB68002B02D0FB687A689A629B
:1015D0001837BD4680BD00BF4809002050090020D3
:1015E000500B002058090020500500204009002021
:1015F0001605002080B584B000AF78600023FB732F
:101600007B681B79BB73BA7B07F10D031046194643
:10161000FFF70CFD7B685B6A002B09D17B689B6A36
:10162000002B05D13D4B00221A600123FB7365E0BE
:101630007B689B6A002B13D17B685B6A374A136017
:101640007B6800225A62354B1B6800229A62334B3A
:101650001B681B79BA7B9A4250D00123FB734DE083
:101660007B685B6A002B17D17B689B6A1B79BA7B0E
:101670009A4202D00123FB7306E07B7B1A467B680B
:101680009B6A9979264B99547B689B6A00225A621F
:101690007B6800229A6231E07B689B6A1B79BA7B87
:1016A0009A4208D07B685B6A1B79BA7B9A4202D067
:1016B0000123FB7312E07B689B6A1B79BA7B9A4219
:1016C0000CD17B685B6A1B79BA7B9A4206D07B7B24
:1016D0001A467B689B6A9979114B99547B689B6A7F
:1016E0007A68526A5A627B685B6A7A68926A9A621E
:1016F0007B6800225A627B6800229A62FB7B012B86
:1017000009D17B7B1A46064BFF2199547B7B1846F7
:101710000021FFF7E5FD1037BD4680BD40090020E0
:101720005809002080B586B000AF03460A46FB7119
:101730001346BB71FB79002B01D11423CAE0FB795E
:10174000102B01D90123C5E0FB792C2202FB03F306
:10175000624A13447B617B695B79032B01D10123CE
:10176000B8E0BB79402B01D90123B3E07B691B7939
:10177000BA799A4200F0AD807B69DB79FF2B15D0F6
:101780007B69DB79DB00564A1344FB60FB689A787F
:101790007B699B799A4209D1FB68BA791A707B6997
:1017A0001B79BA799A4201D9002393E07B691B79AE
:1017B0001846FFF725FEBB791846FFF7C5FD7B6984
:1017C000BA791A717B695B79002B0FD1454B1B7875
:1017D000DBB20133DAB2434B1A707869FFF70AFFC4
:1017E0007869FFF75DFEFEF7F1FC72E07B695B79DB
:1017F000012B13D17B691A793B4B1B681B799A42E9
:1018000067D9384B1B78DBB20133DAB2354B1A702B
:10181000364B01221A70FEF7D9FC5AE07B69DB795E
:10182000FF2B37D02F4B1B78DBB20133DAB22D4BB5
:101830001A707B69DB79DB00294A1344FB60FB6883
:101840005B687B61FB681B78FB74FB689A78FB68BC
:10185000DA700EE07B691B79FA7C9A4206D97B69C3
:101860001B79FB747B699A79FB68DA707B695B6A28
:101870007B617B69002BEDD1FEF7A8FCFB681B7830
:10188000FA7C9A4206D0FB689A78FB7C104619468F
:10189000FFF748FFFB792C2202FB03F30F4A1344A6
:1018A0007B617B691B7AFF2B13D07B691B7A1B0141
:1018B0000F4A1344BB60BB685B7923F00F03DBB2B4
:1018C000202B06D1786903F0B5FBB868796903F07D
:1018D000ABFA002318461837BD4680BD50050020DE
:1018E000E80A002015050020400900201605002008
:1018F000A009002080B584B000AF454B1B68FB6099
:10190000444B1B68BB60BB68002B0ED0424B1B686E
:10191000FA689A4209D1414B1B78DBB2012B04D8FB
:101920003F4B1B78DBB2002B00D06DE03D4B00221B
:101930001A70FB681B79FB71BB681B79BB71FB6874
:101940005B79012B09D0344ABB681360BB68012264
:101950005A71B868FFF74EFE2CE0BA79FB799A42CB
:101960000CD22D4ABB681360F868FFF799FDB86880
:10197000FFF740FEBB6801225A711BE0FA79BB7980
:101980009A4216D1284BD3E90001284BD3E9002312
:10199000994208BF90420CD11F4ABB681360F86897
:1019A000FFF77EFDB868FFF725FEBB6801225A717C
:1019B00000E029E0184B1B681A79164B1B681B794D
:1019C0009A420ED1144B1B685B8998B24FF000010C
:1019D000164BD3E90023121843EB01031249C1E966
:1019E0000023FB681A68FB68DB689A4205D3FB6832
:1019F000DB681B680E4A934204D0FB689B7918464B
:101A000004F07AFA03F0DEFD1037BD4680BD00BF5A
:101A10004809002040090020440900201505002045
:101A2000140500201605002050090020500B00204E
:101A3000A5A55A5A80B582B000AF0F4B1B78DBB218
:101A40000133DAB20C4B1A700C4B1B68002B03D11C
:101A5000FEF7BCFB00230AE0084B1B687B60074BCA
:101A60001B685B6A054A1360FEF7B0FB7B6818468B
:101A70000837BD4680BD00BF150500203C09002089
:101A800080B588B000AFF860B9607A603B607A6872
:101A9000404B13401B0ABB837B68FB76FB68002B23
:101AA00001D1FF2372E03B68002B01D1FF236DE0E1
:101AB000FB7E402B01D9FF2368E0BB8B132B01D8A1
:101AC000FF2363E0F868B9683A6804F0EBF87861DE
:101AD000FFF7B0FF38613B69002B01D1FF2355E0D0
:101AE0003B697A691A603B69FA7E1A71BA8B1346B0
:101AF0009B079B1A9B0004333A681A443B69DA60DF
:101B00003B69DB68244A1A603B694FF0FF321A6276
:101B10003B6900225A623B6900229A627A681F4B35
:101B200013401B0DFB83FB8B002B01D10A23FB838E
:101B30003B69FA8B5A813B690022DA613B69FF22DB
:101B40001A723B6900221A613B6900225A613B69A3
:101B500000229A613B69FF22DA71FB7E1846FFF78B
:101B6000F3FB7B68002B0CDB0D4B1B78DBB20133E6
:101B7000DAB20B4B1A703869FFF792FCFEF726FBBE
:101B800002E03B6902225A713B699B791846203773
:101B9000BD4680BD00FF0F00A5A55A5A0000FF7F7B
:101BA0001505002080B584B000AF0346FB71FB79BA
:101BB000102B01D9012376E0FB792C2202FB03F3E1
:101BC0003B4A1344FB60FB685B79032B01D1012383
:101BD00069E0FB79002B01D1142364E0FB685B7999
:101BE000012B06D1334B1B78DBB2002B01D0152320
:101BF00059E0FB68DB79FF2B0ED0FB68DB792E4ABE
:101C0000DB0013449A78FB689B799A4204D1FB6805
:101C1000DB79184603F0FEFC264B1B78DBB2013360
:101C2000DAB2244B1A70FB685B79002B03D1F86899
:101C3000FFF7E0FC22E0FB685B79022B1ED1FB681A
:101C40001B6AB3F1FF3F02D0F86802F007FFFB68A0
:101C50001B7AFF2B02D0F86803F0ECF9FB68DB6914
:101C6000002B04D0FB68DB69184603F0D9FFFB6842
:101C7000DB79FF2B02D0F86803F072FDFB680322CA
:101C80005A710E4B01221A70FB681B791846FFF738
:101C9000B7FB0B4B1A68FB685A62094AFB68136072
:101CA000FEF794FA002318461037BD4680BD00BFEA
:101CB0005005002015050020E80A00201605002028
:101CC0003C09002080B582B000AF124B7B60124B04
:101CD0003B6007E03B681A1D3A607A68111D796025
:101CE00012681A603B680D4A9342F3D30C480D49C1
:101CF0004FF000028842B8BF40F8042BFADBDFF84F
:101D00002800016841F47001016000F047F90837CC
:101D1000BD4680BDBC700008000000203C040020CF
:101D2000400400209C6B002088ED00E080B400AFF0
:101D3000FEE700BF80B582B000AF394B1B78012BA6
:101D400004D102F075FF364B00221A70354B1B7818
:101D5000012B04D1FEF7DAFC324B00221A704CE062
:101D600003F022FC304B5B782F4ADB0013443A46E9
:101D7000043393E8030082E803002B4B5B785A1C82
:101D80002A4B83FB02135910D317C91A0B469B0029
:101D90000B44D11ACAB2244B5A70234B1B78013B17
:101DA000DAB2214B1A7003F0F7FB3B78013B032BAF
:101DB00022D801A252F823F0C91D0008D31D000843
:101DC000E11D0008EB1D00087B78184604F052F86E
:101DD00013E07A787B681046194600F0CDFD0CE0E0
:101DE0007B78184603F03CFE07E07A787B68104663
:101DF000194603F07BFB00E000BF0B4B1B78002B68
:101E0000AED103F0D1FB084B1B78002B02D1084B5D
:101E100000221A7003F0C0FB0837BD4680BD00BF2A
:101E2000990900209A0900206C09002067666666FF
:101E30009809002080B59CB000AF4048012100F017
:101E4000BBF84FF48070012100F0F2F80023FB6032
:101E50003B4B3B613B4B7B610023BB610223FB613E
:101E600000233B624FF480637B624FF40063BB62EC
:101E70004FF40053FB624FF480733B634FF4003325
:101E80007B630023BB630123FB6300233B640023CC
:101E90007B6407F10C032C48194603F0B5FA2A4875
:101EA000012103F007FBC0237B6003233B72002367
:101EB000FB723B1D2548194603F008F90023BB645B
:101EC0000023FB6400233B6500237B6507F1480387
:101ED000184600F01FF90023BB65012387F85C302A
:101EE000012387F85D3000233B660023BB66022395
:101EF00087F86C3007F158031548194600F0B6F81A
:101F0000134806210122002300F048F91048072158
:101F10000222002300F042F90D48012100F034FABA
:101F20000B48012100F014FA0948012100F01AF9C8
:101F3000074800F0FDF97037BD4680BD0100400044
:101F40004C200140906B00201064024000000240D1
:101F50000020014080B485B000AF0346FB71FB79DF
:101F6000064A32F81330FB81FB891B09FB81FB8990
:101F700018461437BD465DF8047B7047906B00200F
:101F800080B500AF02F0CAFE80BD00BF80B500AFD3
:101F900002F0D2FEFEF744FC80BD00BF80B500AF6A
:101FA00003F084F9FEF738F9FFF7EAFFFFF7EEFFD9
:101FB000FEF770F9FEE700BF80B483B000AF786031
:101FC0000B46FB70FB78002B06D00949084B1A6BB7
:101FD0007B6813430B6306E00549054B1A6B7B686E
:101FE000DB4313400B630C37BD465DF8047B704741
:101FF0000038024080B483B000AF78600B46FB70BD
:10200000FB78002B06D00949084B9A6B7B68134379
:102010008B6306E00549054B9A6B7B68DB431340F5
:102020008B630C37BD465DF8047B70470038024077
:1020300080B483B000AF78600B46FB70FB78002B58
:1020400006D00949084B5A6C7B6813434B6406E081
:102050000549054B5A6C7B68DB4313404B640C37D6
:10206000BD465DF8047B70470038024080B485B0FF
:1020700000AF786039600023FB600023FB727B684F
:102080005B68FB60FB6823F0407323F48073FB60A4
:102090003B681B791A023B681B681343FA681343B9
:1020A000FB607B68FA685A607B689B68FB60FA6833
:1020B000174B1340FB603B681A693B68DB681A43A7
:1020C0003B689B681A433B685B795B001343FA6883
:1020D0001343FB607B68FA689A607B68DB6AFB608D
:1020E000FB6823F47003FB603B681B7D013BDAB2A5
:1020F000FB7A1343FB72FB7A1B05FA681343FB6000
:102100007B68FA68DA621437BD465DF8047B704775
:10211000FDF7FFC080B485B000AF78600023FB609E
:102120000E4B5B68FB60FA680D4B1340FB607B68ED
:102130001A687B685B681A437B689B681A437B68F4
:10214000DB681343FA681343FB60044AFB6853607F
:102150001437BD465DF8047B704700BF0023014083
:10216000E030FCFF80B483B000AF78600B46FB70BA
:10217000FB78002B06D07B689B6843F001027B68EC
:102180009A6005E07B689B6823F001027B689A6097
:102190000C37BD465DF8047B704700BF80B485B046
:1021A00000AF7860084611461A460346FB700B469E
:1021B000BB7013467B700023FB600023BB60FB7881
:1021C000092B23D97B68DB68FB60FB78A3F10A024B
:1021D00013465B001344072202FA03F3BB60BB689B
:1021E000DB43FA681340FB607978FB78A3F10A02BD
:1021F00013465B00134401FA03F3BB60FA68BB6843
:102200001343FB607B68FA68DA601EE07B681B6939
:10221000FB60FA7813465B001344072202FA03F3CB
:10222000BB60BB68DB43FA681340FB607978FA78DF
:1022300013465B00134401FA03F3BB60FA68BB6802
:102240001343FB607B68FA681A61BB78062B21D8C0
:102250007B685B6BFB60BB785A1E13469B00134484
:102260001F2202FA03F3BB60BB68DB43FA6813402A
:10227000FB60F978BB785A1E13469B00134401FAA1
:1022800003F3BB60FA68BB681343FB607B68FA68C2
:102290005A6347E0BB780C2B21D87B681B6BFB6033
:1022A000BB78DA1F13469B0013441F2202FA03F384
:1022B000BB60BB68DB43FA681340FB60F978BB780E
:1022C000DA1F13469B00134401FA03F3BB60FA685C
:1022D000BB681343FB607B68FA681A6322E07B6883
:1022E000DB6AFB60BB78A3F10D0213469B0013442D
:1022F0001F2202FA03F3BB60BB68DB43FA6813409A
:10230000FB60F978BB78A3F10D0213469B001344E0
:1023100001FA03F3BB60FA68BB681343FB607B6898
:10232000FA68DA621437BD465DF8047B704700BF77
:1023300080B483B000AF78607B689B6843F08042D4
:102340007B689A600C37BD465DF8047B704700BF20
:1023500080B483B000AF78600B46FB70FB78002B35
:1023600006D07B689B6843F480727B689A6005E0C6
:102370007B689B6823F480727B689A600C37BD464B
:102380005DF8047B704700BF80B483B000AF786015
:102390000B46FB70FB78002B06D07B689B6843F4F0
:1023A00000727B689A6005E07B689B6823F400728A
:1023B0007B689A600C37BD465DF8047B704700BFB0
:1023C00090B482B000AF78600B46FB70FB78203B86
:1023D0001B01074A1A447B68146850689168D268E8
:1023E0001C6058609960DA600837BD4690BC704741
:1023F000C46A000880B483B000AF78600B46FB70FD
:102400007B68FA781A70012318460C37BD465DF8D0
:10241000047B704780B485B000AF786039600023DA
:10242000FB600AE07B685A1C7A603A68511C39608C
:1024300012781A70FB680133FB603B681B78002B35
:10244000F0D1FB6818461437BD465DF8047B704731
:1024500080B586B000AFF8607A603B600B46FB72D7
:1024600000237B617B68013B7B603B68092B10D9B3
:102470003B681E4AA2FB0323DB08FA7AF868114680
:102480007A68FFF7E5FF78617B69FA681344FB60BF
:1024900011E00DE0FB7AF8681946FFF7ABFFFB6827
:1024A0000133FB607B6901337B617B68013B7B60AF
:1024B0007B68002BEEDC39680C4BA3FB0123DA08A8
:1024C00013469B0013445B00CA1AD3B23033DBB20D
:1024D000F8681946FFF78EFF02467B6913447B615B
:1024E0007B6918461837BD4680BD00BFCDCCCCCC2B
:1024F00090B587B000AFF8607A603B600B46FB7226
:1025000000237B613B68002B03DA3B685B423B6145
:1025100001E03B683B617B68013B7B603B69092BC9
:1025200025D93B68002B0FDA3B69314AA2FB032314
:10253000DB085B421C46FB7AF86819467A6823463A
:10254000FFF7D6FF78610DE03B69294AA2FB032320
:10255000DB081C46FB7AF86819467A682346FFF7C1
:10256000C7FF78617B69FA681344FB6025E03B682C
:10257000002B02DA7B68013B7B600DE0FB7AF86898
:102580001946FFF737FFFB680133FB607B690133B6
:102590007B617B68013B7B607B68002BEEDC3B68EA
:1025A000002B0ADAF8682D21FFF724FF02467B6929
:1025B00013447B61FB680133FB6039690C4BA3FB5F
:1025C0000123DA0813469B0013445B00CA1AD3B2F6
:1025D0003033DBB2F8681946FFF70CFF02467B691F
:1025E00013447B617B6918461C37BD4690BD00BF14
:1025F000CDCCCCCC90B589B002AFF8607A601A46E9
:102600000B46FB721346BB7200237B617B68013B68
:102610007B60BB6A1B09002B13D0BB6A1B09FA7ACB
:10262000BC7A0093F86811467A682346FFF7E2FF08
:1026300002467B6913447B617B69FA681344FB6043
:1026400011E00DE0FB7AF8681946FFF7D3FEFB684E
:102650000133FB607B6901337B617B68013B7B60FD
:102660007B68002BEEDCBB6A03F00F03092B0BD851
:10267000BB6ADBB203F00F03DBB23033DBB2F868C6
:102680001946FFF7B7FE19E0BB7A002B0BD0BB6AE7
:10269000DBB203F00F03DBB23733DBB2F868194665
:1026A000FFF7A8FE0AE0BB6ADBB203F00F03DBB260
:1026B0005733DBB2F8681946FFF79CFE7B6901339C
:1026C0007B617B6918461C37BD4690BD90B58BB0C9
:1026D00002AFF860B9607A603B600023BB61002301
:1026E0007B61FB68002B02D0FB6800221A70FCE0C3
:1026F0007B681B78252B0BD0FB685A1CFA607A6824
:10270000511C796012781A707B6901337B61ECE0AF
:102710007B6801331B78252B0BD1FB685A1CFA60B0
:1027200025221A707B6802337B607B6901337B61F1
:10273000DBE02023FB770023BB777B6801337B60E2
:102740007B681B78302B04D13023FB777B68013307
:102750007B600EE0BB7F1A46920013445B00DAB246
:102760007B681B781344DBB2303BBB777B6801335B
:102770007B607B681B782F2B03D97B681B78392BF8
:10278000E8D9BA7F7B6913441A46BB689A4205D9D7
:10279000BB68DAB27B69DBB2D31ABB777B681B7884
:1027A000583B202B00F2938001A252F823F000BF87
:1027B00087280008CF280008CF280008CF28000865
:1027C000CF280008CF280008CF280008CF2800080D
:1027D000CF280008CF280008CF280008B928000813
:1027E00035280008CF280008CF280008CF28000887
:1027F000CF28000835280008CF280008CF28000877
:10280000CF280008CF280008CF280008CF280008CC
:10281000CF280008CF280008CF280008A5280008E6
:10282000CF2800084F280008CF280008CF2800082C
:1028300069280008BC7F3B681A1D3A601B68FA7F54
:10284000F86811462246FFF753FEB86142E0BC7FAC
:102850003B681A1D3A601B68FA7FF86811462246E9
:10286000FFF7F6FDB86135E0BC7F3B681A1D3A60A2
:102870001B68FA7F0093F868114622460023FFF791
:10288000B9FEB86126E0BC7F3B681A1D3A601B6840
:10289000FA7F0093F868114622460123FFF7AAFE4B
:1028A000B86117E03B681A1D3A601B68F868194662
:1028B000FFF7B0FDB8610DE03B681A1D3A601B6878
:1028C000DBB2F8681946FFF795FDB86102E04FF0FA
:1028D000FF3325E07B6801337B60BB69FA681344F2
:1028E000FB607A69BB6913447B617B681B78002BB2
:1028F00004D07A69BB689A42FFF4FAAE7A69BB6881
:102900009A4203D2FB6800221A7008E0FB68013B80
:10291000FB60FB6800221A707B69013B7B617B696D
:1029200018462437BD4690BD80B584B000AFF8602E
:10293000B9607A60F8686421BA687B68FFF7C6FE00
:10294000034618461037BD4680BD00BF0EB480B5A3
:1029500085B000AF786007F12003BB607868F96943
:10296000BA68FFF7E1FFF860FB6818461437BD4608
:10297000BDE8804003B0704780B584B000AF034627
:102980003960FB71FB79132B01D9012326E0FB7918
:102990001B01144A1344FB60FB685B7903F00F03CF
:1029A000DBB2022B01D0012318E0FB68DB88002B8F
:1029B00013D10D4B1B78DBB20133DAB20A4B1A701C
:1029C000FB683A681A60FB680122DA80F86802F056
:1029D000ABFAFDF7FBFB002300E007231846103796
:1029E000BD4680BDA00900201505002080B582B03D
:1029F00000AF18200121FFF7DFFA01200121FFF7C6
:102A0000F9FA3F4800210C2202F008FC3C48012161
:102A10000C2202F003FC3A4804210C2202F0FEFBD7
:102A2000374805210C2202F0F9FB354808210C2219
:102A300002F0F4FB324809210C2202F0EFFB30488F
:102A40000A210C2202F0EAFB2D480B210C2202F095
:102A5000E5FB2B480E210C2202F0E0FB28480F2159
:102A60000C2202F0DBFB4CF633733B6002233B711C
:102A700003237B710023BB710123FB713B4620487C
:102A8000194602F023FB1F4802210C2202F0C6FB6C
:102A90001C4807210C2202F0C1FB1A4808210C2215
:102AA00002F0BCFB174809210C2202F0B7FB1548C5
:102AB0000A210C2202F0B2FB12480B210C2202F078
:102AC000ADFB10480C210C2202F0A8FB0D480D2193
:102AD0000C2202F0A3FB0B480E210C2202F09EFBFD
:102AE00008480F210C2202F099FB4FF684733B60DB
:102AF0003B460448194602F0E9FA0837BD4680BD56
:102B0000000C02400010024080B596B000AF0023D8
:102B1000FB6100233B6200237B621023BB62002326
:102B2000FB6200237B630023BB630023FB634FF442
:102B300080533B6400237B6400233B630023BB641E
:102B40000023FB643B463B6532233B600A237B60EA
:102B50003223BB600523FB6002233B6100237B61C2
:102B60000023BB613B467B6507F11C03184601F05F
:102B700039FE0020012101F0CFFE5837BD4680BD4F
:102B800080B582B000AF074B7B60FFF72FFF00BF1F
:102B90007B685A1E7A60002BFAD1FFF7B5FF083721
:102BA000BD4680BDFFFF1F0080B485B000AF034667
:102BB000FB800023FB810DE00023BB8102E0BB8989
:102BC0000133BB81BB8940F274429342F7D9FB8940
:102BD0000133FB81FA89FB889A42EDD31437BD4655
:102BE0005DF8047B704700BF80B500AFFFF7C8FFFA
:102BF000ED4B40F223121A80002001F0E3FD034662
:102C00001A46E94B1A80E84B1B8849F22532934259
:102C100006D0E54B1B8849F22832934240F00781E9
:102C2000E24B01221A70E720102101F0B7FD0020CD
:102C3000012101F0B3FD01204FF4807101F0AEFDE0
:102C400002204FF4E06101F0A9FD032041F23001C0
:102C500001F0A4FD0420002101F0A0FD082040F2B5
:102C6000072101F09BFD0920002101F097FD0A20BA
:102C7000002101F093FD0C20012101F08FFD0D20BA
:102C8000002101F08BFD0F20002101F087FD1020B5
:102C9000002101F083FD1120072101F07FFD1220AA
:102CA000002101F07BFD1320002101F077FD32208F
:102CB000FFF77AFF102041F2905101F06FFD1120D3
:102CC00040F2272101F06AFD3220FFF76DFF12204C
:102CD0009C2101F063FD3220FFF766FF13204FF4C3
:102CE000C85101F05BFD2920232101F057FD2B2065
:102CF0000E2101F053FD3220FFF756FF2020002166
:102D000001F04CFD2120002101F048FD3220FFF7A9
:102D10004BFF3020072101F041FD312040F20771C7
:102D200001F03CFD3220062101F038FD352040F253
:102D3000047101F033FD362041F6047101F02EFDDF
:102D40003720042101F02AFD3820002101F026FD62
:102D5000392040F2067101F021FD3C2040F2017162
:102D600001F01CFD3D200F2101F018FD3220FFF77E
:102D70001BFF5020002101F011FD5120EF2101F037
:102D80000DFD5220002101F009FD532040F23F11BA
:102D900001F004FD60204FF4274101F0FFFC6120A9
:102DA000012101F0FBFC6A20002101F0F7FC8020EA
:102DB000002101F0F3FC8120002101F0EFFC8220D2
:102DC000002101F0EBFC8320002101F0E7FC8420CE
:102DD000002101F0E3FC8520002101F0DFFC9020C0
:102DE000102101F0DBFC9220002101F0D7FC9320A0
:102DF000032101F0D3FC95204FF4887101F0CEFC43
:102E00009720002101F0CAFC9820002101F0C6FCA7
:102E1000072040F2331101F0C1FC2020002101F015
:102E2000BDFC2120002101F0B9FC01F094BA5E4BF9
:102E30001B8849F22032934205D05B4B1B88B3F5C7
:102E4000134F40F0B580594B00221A70002000212A
:102E500001F0A4FC01204FF4807101F09FFC0220DE
:102E60004FF4E06101F09AFC032041F2180101F0F7
:102E700095FC0420002101F091FC082040F2022181
:102E800001F08CFC0920002101F088FC0A200021BF
:102E900001F084FC0C20012101F080FC0D200021B8
:102EA00001F07CFC0F20002101F078FC6420FFF78A
:102EB0007BFE072040F2011101F070FC6420FFF757
:102EC00073FE10204FF4865101F068FC1120072199
:102ED00001F064FC12204FF4887101F05FFC1320B4
:102EE0004FF4306101F05AFC2920002101F056FC1A
:102EF0002B2044F2100101F051FC5020002101F080
:102F00004DFC5120EF2101F049FC5220002101F03D
:102F100045FC532040F23F1101F040FC60204FF48B
:102F20001C5101F03BFC6120012101F037FC6A20BB
:102F3000002101F033FC8020002101F02FFC8120D2
:102F4000002101F02BFC8220002101F027FC8320CE
:102F5000002101F023FC8420002101F01FFC8520CA
:102F6000002101F01BFC9020102101F017FC9220A1
:102F7000002101F013FC9320012101F00FFC9520AA
:102F80004FF4887101F00AFC9720002101F006FC43
:102F90009820002101F002FC072040F2731101F09B
:102FA000FDFB01F0D8B900BF966B00209B09002003
:102FB000C74B1B8849F23132934240F0F380C54B36
:102FC00003221A70E72041F2140101F0E7FB01200F
:102FD0004FF4807101F0E2FB02204FF4007101F028
:102FE000DDFB032041F2300101F0D8FB082040F264
:102FF000022101F0D3FB0920002101F0CFFB0A20C0
:10300000002101F0CBFB0C20002101F0C7FB0D20BB
:10301000002101F0C3FB0F20002101F0BFFB1020B5
:10302000002101F0BBFB1120072101F0B7FB1220AA
:10303000002101F0B3FB1320002101F0AFFBC820F9
:10304000FFF7B2FD102041F2906101F0A7FB1120C3
:1030500040F2272101F0A2FB3220FFF7A5FD12204C
:103060000C2101F09BFB3220FFF79EFD13204FF453
:10307000006101F093FB2920112101F08FFB2B202F
:103080000B2101F08BFB3220FFF78EFD2020002169
:1030900001F084FB2120002101F080FB3020002181
:1030A00001F07CFB31204FF4837101F077FB32207B
:1030B000002101F073FB35204FF4017101F06EFB2C
:1030C000362041F20A6101F069FB372040F20771B6
:1030D00001F064FB38204FF4837101F05FFB39206D
:1030E00040F2077101F05AFB3C2040F2024101F02E
:1030F00055FB3D2040F60F4101F050FB50200021D0
:1031000001F04CFB5120EF2101F048FB522000213F
:1031100001F044FB532040F23F1101F03FFB6020DF
:103120004FF41C5101F03AFB6120012101F036FB04
:103130006A20002101F032FB8020002101F02EFBEB
:103140008120002101F02AFB8220002101F026FBD2
:103150008320002101F022FB8420002101F01EFBCE
:103160008520002101F01AFB9020102101F016FBB0
:1031700092204FF4C06101F011FB0720212101F0E2
:103180000DFB3220FFF710FD0720612101F006FB47
:103190003220FFF709FD072040F2331101F0FEFA5B
:1031A00001F0D9B84A4B1B8849F61912934240F0F6
:1031B0009380484B0D221A702820062101F0EEFA68
:1031C0000020012101F0EAFA1020002101F0E6FAC6
:1031D000012047F2EF2101F0E1FA02204FF4C06133
:1031E00001F0DCFA032046F6382101F0D7FA11206D
:1031F00046F6740101F0D2FA0F20002101F0CEFA58
:103200000B2045F2083101F0C9FA0C20032101F02E
:10321000C5FA0D200A2101F0C1FA0E204FF43851F1
:1032200001F0BCFA1E20BE2101F0B8FA25204FF4AF
:10323000004101F0B3FA26204FF4F04101F0AEFA5C
:103240002720782101F0AAFA4E20002101F0A6FAE9
:103250004F20002101F0A2FA122040F6D90101F01E
:103260009DFA3020002101F099FA31204FF482714B
:1032700001F094FA32204FF4807101F08FFA33207C
:1032800040F2053101F08AFA342040F2055101F094
:1032900085FA352040F2053101F080FA362040F2FF
:1032A000077101F07BFA37204FF4407101F076FA94
:1032B0003A204FF4905101F071FA3B204FF4006135
:1032C00001F06CFA0720332101F068FA01F043B8ED
:1032D000966B00209B090020904B1B8841F2055201
:1032E000934206D08D4B1B8840F20552934240F02A
:1032F00019818B4B09221A700720002101F04EFA28
:103300003220FFF751FC12204FF48E7101F046FA83
:10331000A420012101F042FA08200F2101F03EFA19
:103320000A20082101F03AFA0D20082101F036FAAE
:10333000302040F2077101F031FA3120072101F00D
:103340002DFA322040F2036101F028FA33204FF4C5
:10335000E06101F023FA342040F2022101F01EFA6C
:103360003520022101F01AFA362041F60F7101F0E2
:1033700015FA372040F2077101F010FA38200021C9
:1033800001F00CFA3920002101F008FA3A2040F24D
:10339000077101F003FA3B20002101F0FFF93C2006
:1033A000072101F0FBF93D20002101F0F7F932205F
:1033B000FFF7FAFB0720012101F0F0F917200121A6
:1033C00001F0ECF93220FFF7EFFB10204FF4BD5174
:1033D00001F0E4F9112040F2172101F0DFF9122089
:1033E0004FF48F7101F0DAF913204FF4706101F09E
:1033F000D5F92A20002101F0D1F929200A2101F074
:10340000CDF912204FF49F7101F0C8F9502000212E
:1034100001F0C4F95120EF2101F0C0F95220002140
:1034200001F0BCF9532040F23F1101F0B7F96020E0
:103430004FF41C5101F0B2F96120012101F0AEF905
:103440006A20002101F0AAF98020002101F0A6F9EC
:103450008120002101F0A2F98220002101F09EF9D3
:103460008320002101F09AF98420002101F096F9CF
:103470008520002101F092F99020132101F08EF9AE
:1034800092204FF4407101F089F99320052101F059
:1034900085F99520002101F081F99720002101F0A4
:1034A0007DF99820002101F079F901204FF4807115
:1034B00001F074F902204FF4E06101F06FF903208C
:1034C00041F2300101F06AF90420002101F066F9AF
:1034D0000C20002101F062F90F20002101F05EF9BB
:1034E0002020002101F05AF92120002101F056F995
:1034F0000720212101F052F9C820FFF755FB0720D2
:10350000612101F04BF9C820FFF74EFB072040F284
:10351000731101F043F900F01EBF00BF966B00204D
:103520009B0900209F4B1B8848F68912934240F06C
:103530003D819D4B05221A700020012101F02EF9DA
:103540003220FFF731FB03204AF6A40101F026F9EF
:103550003220FFF729FB0C20002101F01FF9322057
:10356000FFF722FB0D2040F60C0101F017F9322085
:10357000FFF71AFB0E204FF42C5101F00FF9322007
:10358000FFF712FB1E20B02101F008F93220FFF7EF
:103590000BFB012042F63F3101F000F93220FFF72A
:1035A00003FB02204FF4C06101F0F8F83220FFF76E
:1035B000FBFA1020002101F0F1F83220FFF7F4FAB5
:1035C000112046F2700101F0E9F83220FFF7ECFA21
:1035D0000520002101F0E2F83220FFF7E5FA06208D
:1035E000002101F0DBF83220FFF7DEFA16204EF65C
:1035F0001C7101F0D3F83220FFF7D6FA172003210F
:1036000001F0CCF83220FFF7CFFA072040F2331157
:1036100001F0C4F83220FFF7C7FA0B20002101F0B7
:10362000BDF83220FFF7C0FA0F20002101F0B6F8F4
:103630003220FFF7B9FA4120002101F0AFF8322023
:10364000FFF7B2FA4220002101F0A8F83220FFF77C
:10365000ABFA4820002101F0A1F83220FFF7A4FACC
:10366000492040F23F1101F099F83220FFF79CFA0F
:103670004A20002101F092F83220FFF795FA4B2002
:10368000002101F08BF83220FFF78EFA44204FF42E
:103690006F4101F083F83220FFF786FA45200021C0
:1036A00001F07CF83220FFF77FFA462040F23F110C
:1036B00001F074F83220FFF777FA302040F20771FA
:1036C00001F06CF83220FFF76FFA31204FF40171EE
:1036D00001F064F83220FFF767FA32204FF40171ED
:1036E00001F05CF83220FFF75FFA332040F202511C
:1036F00001F054F83220FFF757FA342040F2075116
:1037000001F04CF83220FFF74FFA35204FF40171E9
:1037100001F044F83220FFF747FA36204FF40171E8
:1037200001F03CF83220FFF73FFA372040F2025117
:1037300001F034F83220FFF737FA3A2040F2023134
:1037400001F02CF83220FFF72FFA3B2040F2023133
:1037500001F024F83220FFF727FA2320002101F09E
:103760001DF83220FFF720FA2420002101F016F87E
:103770003220FFF719FA25204FF4004101F00EF82E
:103780003220FFF711FA4F20002101F007F84E20F8
:10379000002101F003F8112046F2680100F0FEFF5D
:1037A00000F0D9BD966B00209B090020C14B1B88FF
:1037B00048F69912934240F0CB80BF4B04221A7016
:1037C0002820062100F0EAFF0020012100F0E6FF9A
:1037D00003204AF6A46100F0E1FF0C20042100F070
:1037E000DDFF0D200C2100F0D9FF0E204FF42051F9
:1037F00000F0D4FF1E20B52100F0D0FF012043F6D9
:103800003F3100F0CBFF02204FF4C06100F0C6FF53
:103810001020002100F0C2FF112046F6300100F018
:10382000BDFF0520002100F0B9FF0620002100F0B7
:10383000B5FF16204EF61C7100F0B0FF07203321B3
:1038400000F0ACFF0B20002100F0A8FF0F200021AA
:1038500000F0A4FF4120002100F0A0FF4220002141
:1038600000F09CFF4820002100F098FF492040F222
:103870003F1100F093FF4A20002100F08FFF4B2002
:10388000002100F08BFF44204FF46F4100F086FFD1
:103890004520002100F082FF462040F23F1100F059
:1038A0007DFF4E20002100F079FF4F20002100F025
:1038B00075FF302040F2077100F070FF312040F2B8
:1038C000022100F06BFF32204FF4017100F066FF1F
:1038D000332040F2025100F061FF342040F20751E2
:1038E00000F05CFF35204FF4017100F057FF3620E7
:1038F0004FF4017100F052FF372040F2025100F006
:103900004DFF3A2040F2023100F048FF3B2040F2E8
:10391000023100F043FF2320002100F03FFF24206C
:10392000002100F03BFF25204FF4004100F036FF5E
:1039300026204FF4E04100F031FF20204BF2EB0154
:1039400000F02CFF27207C2100F028FF00F003BDB1
:10395000584B1B8845F20842934240F0AF80564BCB
:1039600008221A7001204FF4807100F017FF022026
:103970004FF4E06100F012FF032041F2300100F04B
:103980000DFF0420002100F009FF082040F207216C
:1039900000F004FF0920002100F000FF0A200021B0
:1039A00000F0FCFE0C20002100F0F8FE0D200021AC
:1039B00000F0F4FE0F20002100F0F0FE3220FFF7AF
:1039C000F3F8072040F2011100F0E8FE3220FFF783
:1039D000EBF8102041F2B06100F0E0FE112001216F
:1039E00000F0DCFE1720012100F0D8FE12204FF479
:1039F0009C7100F0D3FE13204FF4006100F0CEFE66
:103A00002920092100F0CAFE2A20092100F0C6FE63
:103A1000A420002100F0C2FE5020002100F0BEFED4
:103A20005120EF2100F0BAFE5220002100F0B6FE36
:103A3000532040F23F1100F0B1FE60204FF41C51C2
:103A400000F0ACFE6120032100F0A8FE6A200021F6
:103A500000F0A4FE8020002100F0A0FE81200021C3
:103A600000F09CFE8220002100F098FE83200021BF
:103A700000F094FE8420002100F090FE85200021BB
:103A800000F08CFE9020132100F088FE922000218F
:103A900000F084FE9320032100F080FE95204FF477
:103AA000887100F07BFE072040F2731100F076FE73
:103AB00000F051BC966B00209B090020B64B1B8880
:103AC00044F23152934240F0AD80B44B07221A7059
:103AD0000020012100F062FE10204FF4C56100F0CB
:103AE0005DFE1220062100F059FE132040F632211F
:103AF00000F054FE1120402100F050FE152050210E
:103B000000F04CFE1220162100F048FE3220FFF794
:103B10004BF8102045F2606100F040FE3220FFF7C4
:103B200043F8132042F64E2100F038FE01204FF4F6
:103B3000807100F033FE02204FF4407100F02EFE41
:103B4000032041F2300100F029FE082040F202215A
:103B500000F024FE0A20002100F020FE3020002189
:103B600000F01CFE312040F2024100F017FE32202E
:103B70004FF4837100F012FE33204FF4E06100F047
:103B80000DFE34204FF4827100F008FE352040F223
:103B9000013100F003FE362040F2077100F0FEFD17
:103BA000372040F2053100F0F9FD38204FF4027162
:103BB00000F0F4FD392040F60B7100F0EFFD3220EB
:103BC000FEF7F2FF4120022100F0E8FD60204FF4F3
:103BD0001C5100F0E3FD6120012100F0DFFD902089
:103BE00040F2191100F0DAFD92204FF4857100F0D7
:103BF000D5FD9320042100F0D1FDA0204FF4807169
:103C000000F0CCFD3220FEF7CFFF072040F2331149
:103C100000F0C4FD3220FEF7C7FFA020002100F015
:103C2000BDFD98E35C4B1B8844F23552934240F053
:103C3000B7805A4B0C221A701520302100F0AEFDCF
:103C40009A20102100F0AAFD1120202100F0A6FDED
:103C5000102043F2284100F0A1FD1220022100F0C3
:103C60009DFD132041F2380100F098FD2820FEF759
:103C70009BFF1220122100F091FD2820FEF794FFF7
:103C8000102043F2204100F089FD132043F245014A
:103C900000F084FD4620FEF787FF3020002100F071
:103CA0007DFD312040F2024100F078FD322040F2EB
:103CB000073100F073FD33204FF4417100F06EFDC9
:103CC0003420042100F06AFD352040F2014100F06B
:103CD00065FD362040F2077100F060FD372040F2AC
:103CE000053100F05BFD38204FF4C26100F056FD55
:103CF00039204FF4C26100F051FD01204FF4807172
:103D000000F04CFD02204FF4407100F047FD03200D
:103D100041F2300100F042FD082040F6080100F0B9
:103D20003DFD0A20082100F039FD60204FF41C51B0
:103D300000F034FD6120012100F030FD90204FF4AF
:103D40009F7100F02BFD92204FF4807100F026FD52
:103D500093204FF4807100F021FDA0204FF44051DA
:103D600000F01CFDA320102100F018FD0720012108
:103D700000F014FD0720212100F010FD0720232171
:103D800000F00CFD0720332100F008FD072040F271
:103D9000331100F003FDDEE2966B00209B0900204A
:103DA000D44B1B88472B40F0E380D34B0A221A7078
:103DB000EA20002100F0F2FCEB20202100F0EEFCD4
:103DC000EC200C2100F0EAFCED20C42100F0E6FC20
:103DD000E820402100F0E2FCE920382100F0DEFC80
:103DE000F120012100F0DAFCF220102100F0D6FCD5
:103DF0002720A32100F0D2FC4020012100F0CEFCBE
:103E00004120002100F0CAFC4220002100F0C6FC45
:103E10004320102100F0C2FC44200E2100F0BEFC23
:103E20004520242100F0BAFC4620042100F0B6FC15
:103E30004720502100F0B2FC4820022100F0AEFCE7
:103E40004920132100F0AAFC4A20192100F0A6FC09
:103E50004B20192100F0A2FC4C20162100F09EFC02
:103E600050201B2100F09AFC5120312100F096FCDB
:103E700052202F2100F092FC53203F2100F08EFCB5
:103E800054203F2100F08AFC55203E2100F086FCA2
:103E900056202F2100F082FC57207B2100F07EFC71
:103EA0005820092100F07AFC5920062100F076FC08
:103EB0005A20062100F072FC5B200C2100F06EFC01
:103EC0005C201D2100F06AFC5D20CC2100F066FC26
:103ED0001B20182100F062FC1A20012100F05EFC7A
:103EE0002420152100F05AFC2520502100F056FC1A
:103EF00023208B2100F052FC1820362100F04EFCCC
:103F00001920012100F04AFC0120002100F046FCAC
:103F10001F20882100F042FC3220FEF745FE1F20C2
:103F2000802100F03BFC3220FEF73EFE1F20902156
:103F300000F034FC3220FEF737FE1F20D02100F0C5
:103F40002DFC3220FEF730FE1720052100F026FC64
:103F50003620002100F022FC2820382100F01EFC31
:103F60003220FEF721FE28203C2100F017FCF2E170
:103F7000604B1B8847F28372934240F0BF805E4BD8
:103F800006221A70FF20012100F008FCF32008210E
:103F900000F004FC01204FF4807100F0FFFB0220D0
:103FA0004FF4E06100F0FAFB032041F2300100F031
:103FB000F5FB082040F2023100F0F0FB082040F24F
:103FC000072100F0EBFB0920002100F0E7FB0A20AD
:103FD000002100F0E3FB1020002100F0DFFB1120A6
:103FE000052100F0DBFB1220002100F0D7FB13209D
:103FF000002100F0D3FB3220FEF7D6FD102041F265
:10400000B02100F0CBFB3220FEF7CEFD11200721BE
:1040100000F0C4FB3220FEF7C7FD12208B2100F018
:10402000BDFB3220FEF7C0FD13204FF4B85100F065
:10403000B5FB3220FEF7B8FD2920222100F0AEFBAF
:104040003020002100F0AAFB312040F2077100F07F
:10405000A5FB322040F2055100F0A0FB352040F2D4
:10406000071100F09BFB3620082100F097FB37205A
:10407000002100F093FB382040F2022100F08EFB7B
:1040800039204FF4837100F089FB3C2040F202217B
:1040900000F084FB3D204FF4816100F07FFB322073
:1040A000FEF782FD5020002100F078FB5120EF2127
:1040B00000F074FB5220002100F070FB532040F20E
:1040C0003F1100F06BFB60204FF4274100F066FBCE
:1040D0006120012100F062FB9020332100F05EFBA3
:1040E0002B200B2100F05AFB072040F2331100F087
:1040F00055FB30E1966B00209B090020984B40F265
:1041000023121A80672000F05DFB03461A46944B89
:104110001A80934B1B88472B40F01D81914B0B223B
:104120001A704220082100F039FB4620B42100F02B
:1041300035FB4720432100F031FB4820132100F0DC
:104140002DFB4920472100F029FB4A20142100F0D3
:1041500025FB4B20362100F021FB4C20032100F0F1
:104160001DFB4D20462100F019FB4E20052100F0DB
:1041700015FB4F20102100F011FB5020082100F00A
:104180000DFB51200A2100F009FB0220002100F064
:1041900005FB0320002100F001FB0420002100F0BA
:1041A000FDFA0520EF2100F0F9FA0620002100F0C9
:1041B000F5FA0720002100F0F1FA0820012100F0B3
:1041C000EDFA09203F2100F0E9FA0A20FEF7ECFCA5
:1041D0000120062100F0E2FA1620C82100F0DEFAE4
:1041E0002320952100F0DAFA2420952100F0D6FA58
:1041F0002520FF2100F0D2FA2720022100F0CEFA7C
:104200002820022100F0CAFA2920022100F0C6FA73
:104210002A20022100F0C2FA2C20022100F0BEFA6E
:104220002D20022100F0BAFA3A20012100F0B6FA5E
:104230003B20012100F0B2FA3C20F02100F0AEFA60
:104240003D20002100F0AAFA1420FEF7ADFC352035
:10425000382100F0A3FA3620782100F09FFA3E20A2
:10426000382100F09BFA40200F2100F097FA4120FE
:10427000F02100F093FA3820002100F08FFA192085
:10428000492100F08BFA93200A2100F087FA0A20D6
:10429000FEF78AFC2020202100F080FA1D20032157
:1042A00000F07CFA1E20002100F078FA1F2009217E
:1042B00000F074FA4420532100F070FA45201021D8
:1042C00000F06CFA0A20FEF76FFC1C20042100F0BD
:1042D00065FA1420FEF768FC4320802100F05EFAA6
:1042E0000520FEF761FC1B200A2100F057FA282068
:1042F000FEF75AFC1B20122100F050FA2820FEF78E
:1043000053FC90207F2100F049FA2620042100F080
:1043100045FA2820FEF748FC2620242100F03EFA2A
:1043200026202C2100F03AFA2820FEF73DFC7020D0
:10433000082100F033FA26203C2100F02FFA572004
:10434000022100F02BFA5520002100F027FA572017
:10435000002100F023FA3220FEF726FC80BD00BFCA
:10436000966B00209B09002080B584B000AF034607
:10437000FB800023FB60204B1B780A2B03D01E4BD5
:104380001B780B2B20D10220002100F007FA03201C
:10439000002100F003FA0420002100F0FFF90520BD
:1043A000EF2100F0FBF90620002100F0F7F90720CB
:1043B000002100F0F3F90820012100F0EFF90920B5
:1043C0003F2100F0EBF903E00020002100F016F897
:1043D000222000F0B9F90023FB6006E0FB881846B4
:1043E00000F0C0F9FB680133FB60FB68B3F5963F52
:1043F000F4D31037BD4680BD9B09002080B584B042
:1044000000AF03460A46FB801346BB80FB88FB8156
:10441000BB88FB80FB89C3F59F730133BB80284BAE
:104420001B78043B092B17D801A252F823F000BFD8
:104430006F4400086F4400085944000859440008BC
:104440005944000859440008854400088544000880
:1044500059440008B7440008FB882020194600F0A2
:104460009DF9BB882120194600F098F924E0FB88CB
:104470004E20194600F092F9BB884F20194600F0F3
:104480008DF919E0FB881B0A9BB20220194600F047
:1044900085F9FB880320194600F080F9BB881B0AC8
:1044A0009BB20620194600F079F9BB88072019460F
:1044B00000F074F900E000BF1037BD4680BD00BFBA
:1044C0009B09002080B582B000AF0346FB800B46FD
:1044D000BB8013467B80FB88B3F5A07F02D2BB88EC
:1044E000EF2B00D90AE0FA88BB8810461946FFF77F
:1044F00085FF7B882220194600F050F90837BD4619
:1045000080BD00BF90B585B000AF04460846114697
:104510001A462346FB800346BB800B467B8013462E
:104520003B80FA887B8813447B81BA883B8813449C
:104530003B81BB88BB8114E0FB88FB810AE0F989E1
:10454000BA893B8C084611461A46FFF7BBFFFB8928
:104550000133FB81FA897B899A42F0D3BB8901330D
:10456000BB81BA893B899A42E6D31437BD4690BDD8
:1045700090B585B000AF0446084611461A4623465A
:10458000FB800346BB800B467B8013463B807B88C9
:104590005B429BB2FB813EE07B887A8802FB03F2A0
:1045A000B7F90E30B7F90E1001FB03F3D31A184612
:1045B00001F042FF02460B461046194601F0A2FCEC
:1045C00002460B461046194602F036FA0346BB6017
:1045D000BB689BB25B429BB2BB8112E0FA89FB884D
:1045E000134499B2BA89BB8813449AB23B880846EF
:1045F00011461A46FFF766FFBB899BB201339BB297
:10460000BB81B7F90C20BB689A42E7DBFB899BB200
:1046100001339BB2FB81B7F90E207B889A42BBDB4A
:104620001437BD4690BD00BF90B589B000AF0446B9
:10463000084611461A462346FB800346BB800B46BC
:10464000FB7013463B8007F10802FB7810461946C1
:10465000FDF7B6FE0023FB8339E0FB8B07F1200258
:10466000134413F8183CFB760023BB8329E0FA7E41
:10467000BB8BC3F1070342FA03F303F00103002BE2
:104680000ED0FA88BB8B134499B2BA88FB8B1344C3
:104690009AB23B88084611461A46FFF713FF0DE011
:1046A000FA88BB8B134499B2BA88FB8B13449AB235
:1046B0003B8E084611461A46FFF704FFBB8B0133B9
:1046C000BB83BB8B072BD2D9FB8B0133FB83FB8BCB
:1046D0000F2BC2D92437BD4690BD00BF90B589B01D
:1046E00002AFBA601A460346FB810B46BB811346F4
:1046F000FB80BB685A1CBA601B78FB75F889B989C6
:10470000FA7DFC883B8D00932346FFF78DFFFB89E4
:10471000B3F59C7F03D2FB890833FB810CE0BB8996
:10472000DF2B05D80023FB81BB891033BB8103E05D
:104730000023FB810023BB81BB681B78002BD8D1F1
:104740001C37BD4690BD00BF80B483B000AF0346A8
:10475000FB804FF0C042FB8813800C37BD465DF8EC
:10476000047B704780B483B000AF0346FB80044AEB
:10477000FB8813800C37BD465DF8047B704700BF93
:104780000000026080B400AF034B1B889BB2184648
:10479000BD465DF8047B70470000026080B582B0C2
:1047A00000AF03460A46FB801346BB80FB881846D1
:1047B000FFF7CAFFBB881846FFF7D4FF0837BD468E
:1047C00080BD00BF80B582B000AF0346FB80FB8890
:1047D0001846FFF7B9FFFFF7D5FF0346184608371D
:1047E000BD4680BD80B483B000AF78604FF02040FC
:1047F0007B681B687A6851687A68926811437A68A6
:10480000D26811437A68126911437A685269114378
:104810007A68926911437A68D26911437A68126A98
:1048200011437A68526A11437A68926A11437A682E
:10483000D26A11437A68126B0A4340F823207B68DE
:104840009B68082B0DD14FF020417B681B684FF00F
:1048500020407A68126850F8222042F0400241F865
:1048600023204FF020407B681B6801337A68526B2D
:1048700011687A68526B5268120111437A68526B60
:104880009268120211437A68526BD2681204114383
:104890007A68526B1269120511437A68526B526939
:1048A000120611437A68526B92690A4340F823203A
:1048B0007B68DB6AB3F5804F20D116487B681B68A4
:1048C0007A68926B11687A68926B52681201114390
:1048D0007A68926B9268120211437A68926B12693D
:1048E000120511437A68926B5269120611437A6875
:1048F000926B92690A4340F8232006E0054A7B68E0
:104900001B686FF0704142F823100C37BD465DF80C
:10491000047B7047040100A080B483B000AF7860CE
:104920000B46FB70FB78002B0CD04FF020414FF072
:1049300020427B6852F8233043F001027B6841F843
:1049400023200BE04FF020414FF020427B6852F8CB
:104950002320054B13407A6841F822300C37BD46BE
:104960005DF8047B704700BFFEFF0F0080B485B088
:1049700000AF786039603B68002B00D164E0354BB4
:104980001B68002B06D17B683A681A62314A7B6843
:10499000136053E02F4B1B68BB603B68FB604AE031
:1049A000FA68BB681B6AD31AFB60FB68002B2EDA1F
:1049B000BB689B6A002B0ED0BB689B6A7A685A6200
:1049C000BB689A6A7B689A627B68BA685A62BB68FD
:1049D0007A689A620AE01F4B1A687B685A621D4B1C
:1049E0001B687A689A621B4A7B6813607B685B6A03
:1049F0001A6AFB681A447B681A627B685B6A7A6889
:104A0000526A116A7A68126A8A1A1A6216E0FB6898
:104A1000002B0DDBBB685B6A002B09D17B68BA6891
:104A20009A62BB687A685A62FA687B681A6205E023
:104A3000BB685B6ABB60BB68002BB1D17B6802229C
:104A40005A71054B01221A701437BD465DF8047B7C
:104A5000704700BF9C0900201605002080B483B079
:104A600000AF78607B689B6A002B07D17B685B6A2C
:104A7000002B03D1254B00221A603DE07B689B6A26
:104A8000002B14D17B685B6A204A13607B685B6AE9
:104A90007A68526A116A7A68126A0A441A627B68F2
:104AA0005B6A00229A627B6800225A6224E07B687B
:104AB0005B6A002B07D17B689B6A00225A627B6885
:104AC00000229A6218E07B689B6A7A68526A5A628E
:104AD0007B685B6A7A68926A9A627B685B6A7A68CA
:104AE000526A116A7A68126A0A441A627B68002262
:104AF0005A627B6800229A627B684FF0FF321A622A
:104B00000C37BD465DF8047B704700BF9C09002050
:104B100080B582B000AF7860164B1B78DBB2002BFB
:104B200001D0032321E07B68B3F1FF3F01D10223D1
:104B30001BE07B68002B01D1002316E00E4B1B7895
:104B4000DBB2002B01D015230FE00B4B1B78DBB23F
:104B50000133DAB2084B1A70084B1B6818467968A3
:104B6000FFF704FFFBF732FB002318460837BD466A
:104B700080BD00BF14050020150500204809002055
:104B800090B585B000AF0446084611461A46234644
:104B9000FB710346BB710B467B7113467B80214B37
:104BA0001B78DBB2002B01D0032336E0BB793B2B13
:104BB00006D87B793B2B03D87B88B3F57A7F01D36A
:104BC00002232AE0184B1B78DBB2002B01D01523FF
:104BD00023E0FB794FF4616202FB03F1BA791346DB
:104BE0001B019B1A9B00CA187B7913444FF47A72FD
:104BF00002FB03F27B884FF47A7101FB03F303F5A8
:104C0000FA730A4981FB03018911DB17CB1A13449C
:104C1000FB60F868FFF77CFF002318461437BD4699
:104C200090BD00BF1405002015050020D34D621073
:104C300080B582B000AF1A4B1B687B6026E07B68B2
:104C40001B7AFF2B02D0786800F0F4F97B68DB69EF
:104C5000002B04D07B68DB69184600F0E1FF7B681D
:104C60004FF0FF321A627B685B6A0D4A13607B6803
:104C700000225A627868FCF713FC094B1B687B60C2
:104C80007B68002B02D07B6800229A627B68002B35
:104C900003D07B681B6A002BD1D00837BD4680BD8E
:104CA0009C09002080B500AF074B1B78DBB2012BBD
:104CB00006D9064B01221A70054B01221A7001E039
:104CC000FFF7B6FF80BD00BF150500209809002042
:104CD0009909002080B582B000AF03463960FB71AE
:104CE000054B1B781846396800F0FEFDFB79184625
:104CF0000837BD4680BD00BF996B002080B582B0EB
:104D000000AF0346FB71044B1B78184600F0A8FE69
:104D10000837BD4680BD00BF996B002080B500AF4D
:104D20000120002100F094FD03461A46014B1A7041
:104D300080BD00BF996B002080B584B000AF012317
:104D4000FB606423BB60FBF735FD094BFF221A7043
:104D50000120F968BA68074BFBF70AFC0346FB71B0
:104D6000FB791846FBF79AFC1037BD4680BD00BFA3
:104D7000986B0020794D000880B582B000AFFBF73A
:104D800031FD0346FB71094B1B78FA799A4207D033
:104D9000064B1B78002B03D1FB791846FFF7AEFFBB
:104DA000024AFB7913700837BD4680BD986B00201E
:104DB00080B485B000AF0023FB73184BBB60184B69
:104DC0007B6014E0BB687A681A60BB68FA7B1A7172
:104DD000BA685379042161F303035371BB6810333C
:104DE000BB607B6810337B60FB7B0133FB73FB7B19
:104DF000122BE7D9BA685379042161F30303537185
:104E0000BB6800221A60BB68FA7B1A71054B034A23
:104E10001A601437BD465DF8047B7047A009002076
:104E2000B0090020E00A002080B584B000AF7860AF
:104E300039603B4B1B78DBB20133DAB2384B1A7066
:104E40007B68DB68FB607B681A793B681A727B6859
:104E50005B7923F00F03DBB2102B15D1FB68002B1D
:104E600003D17B683A68DA604EE002E0FB685B6978
:104E7000FB60FB685B69002BF8D1FB683A685A61FC
:104E80003B68FA689A613FE07B685B7923F00F0327
:104E9000DBB2202B38D1FB68002B03D17B683A684A
:104EA000DA6031E0FB681A793B681B799A4209D9CC
:104EB0007B683A68DA603B68FA685A61FB683A686E
:104EC0009A6121E0FB685B69BB600BE0BB681A7903
:104ED0003B681B799A4200D907E0BB68FB60BB685E
:104EE0005B69BB60BB68002BF0D1FB683A685A6114
:104EF0003B68FA689A613B68BA685A61BB68002BE4
:104F000002D0BB683A689A613B6802225A71054B2D
:104F100001221A70FBF75AF91037BD4680BD00BF59
:104F2000150500201605002080B584B000AF78601C
:104F30007B68DB68FB60FB68002B00D174E0FB68DA
:104F40005A697B68DA607B68DB68002B03D07B687A
:104F5000DB6800229A61FB6800225A61FB68FF222D
:104F60001A72FB681B6AB3F1FF3F02D0F868FFF7C3
:104F700075FD7B685B7903F00F03DBB2022B0DD16B
:104F80007B681A68FB681A617B6800221A607B687C
:104F9000DB88013B9AB27B68DA8039E07B685B7919
:104FA00003F00F03DBB2032B21D17B681B68BB60CE
:104FB000BB681A68BB68DB889B0013441A68FB68EF
:104FC0001A61BB68DB8801339AB2BB68DA80BB68C0
:104FD0009B89013B9AB2BB689A81BB68DA88BB683F
:104FE0005B899A4214D1BB680022DA8010E07B68AA
:104FF0005B7903F00F03DBB2012B09D17B68DB88FF
:10500000013B9AB27B68DA80FB684FF0FF321A618D
:10501000074B1B68FA689A4203D1FB6801225A7158
:1050200002E0F868FCF73CFA1037BD4680BD00BFCF
:105030004809002080B485B000AF78607B681B7A97
:105040001B01214A1344FB607B685B69002B07D17D
:105050007B689B69002B03D1FB680022DA602BE0A0
:105060007B689B69002B0BD17B685B6900229A618E
:105070007B685A69FB68DA607B6800225A611BE032
:105080007B685B69002B07D17B689B6900225A61B2
:105090007B6800229A610FE07B689B697A6852699D
:1050A0005A617B685B697A6892699A617B680022C1
:1050B0009A617B6800225A617B68FF221A7214375A
:1050C000BD465DF8047B7047A009002080B487B01E
:1050D00000AF7860396000237B6100233B610023CF
:1050E000FB6000237B6176E07B69012202FA03F317
:1050F0003B613B681A683B691340FB60FA683B6997
:105100009A4265D17B681A687B695B001946032364
:105110008B40DB431A407B681A607B681A683B68E7
:105120001B7919467B695B0001FA03F31A437B681C
:105130001A603B681B79012B03D03B681B79022B5B
:105140002ED17B689A687B695B00194603238B40EC
:10515000DB431A407B689A607B689A683B685B799E
:1051600019467B695B0001FA03F31A437B689A6076
:105170007B685A687B699BB2194601238B40DB43ED
:105180001A407B685A607B685B683A68927911467E
:105190007A6992B201FA02F292B21A437B685A60BB
:1051A0007B68DA687B699BB25B00032101FA03F339
:1051B000DB431A407B68DA607B68DA683B68DB793E
:1051C00019467B695B0001FA03F31A437B68DA60D6
:1051D0007B6901337B617B690F2B85D91C37BD4609
:1051E0005DF8047B704700BF80B485B000AF786085
:1051F0000B467B800023FB737B681A697B88134016
:10520000002B02D00123FB7301E00023FB73FB7B27
:1052100018461437BD465DF8047B704780B485B0EE
:1052200000AF78600B467B8013467B700023FB60E9
:105230000023BB607B787A8802F0070292009340DB
:10524000FB607B88DB089BB218467B88DB089BB23F
:105250001A467B68083253F822207B8803F0070344
:105260009B0019460F238B40DB4302EA03017B6856
:1052700000F1080243F822107B88DB089BB21A4633
:105280007B68083253F82220FB681343BB607B889D
:10529000DB089BB21A467B680832B96843F82210D3
:1052A0001437BD465DF8047B704700BF80B500AF82
:1052B000154A154BD3F8883043F47003C2F8883090
:1052C000124A124B1B6843F0010313600F4B00227C
:1052D0009A600E4A0D4B1B6823F0847323F48033CD
:1052E00013600A4B0A4A5A60084A084B1B6823F4A9
:1052F00080231360054B0022DA6000F00BF8024BAC
:105300004FF000629A6080BD00ED00E0003802407E
:105310001030002480B483B000AF00237B600023F2
:105320003B60354A344B1B6843F480331360324B87
:105330001B6803F400333B607B6801337B603B6890
:10534000002B03D17B68B3F5A06FF0D12A4B1B680B
:1053500003F40033002B02D001233B6001E0002363
:105360003B603B68012B42D1234A234B1B6C43F02B
:1053700080531364214A214B1B6843F4804313601C
:105380001D4A1D4B9B6893601B4A1B4B9B6843F453
:1053900000439360184A184B9B6843F4A0539360F2
:1053A000154B174A5A60144A134B1B6843F080731D
:1053B000136000BF104B1B6803F00073002BF9D083
:1053C000104B40F205621A600B4A0B4B9B6823F0AE
:1053D00003039360084A084B9B6843F00203936001
:1053E00000BF054B9B6803F00C03082BF9D10C3769
:1053F000BD465DF8047B70470038024000700040F5
:1054000008544007003C024080B485B000AF78608B
:1054100039600023FB607B681B68FB60FA68244BE3
:105420001340FB603B681A683B68DB681A433B68C3
:105430005B691A433B689B691A433B68DB691A4303
:105440003B681B6A1A433B685B6A1A433B689B6A6A
:105450001A433B685B6B1A433B689B6B1343FA68C8
:105460001343FB607B68FA681A607B685B69FB60CA
:10547000FB6823F00703FB603B68DA6A3B681B6B41
:105480001343FA681343FB607B68FA685A613B6810
:105490001A697B685A603B685A687B689A603B6807
:1054A0009A687B68DA601437BD465DF8047B704704
:1054B0003F801CF080B483B000AF78600B46FB7077
:1054C000FB78002B06D07B681B6843F001027B68E9
:1054D0001A6005E07B681B6823F001027B681A6094
:1054E0000C37BD465DF8047B704700BF80B584B0C3
:1054F00000AF03463960FB71FB79132B01D90123FF
:1055000042E0FB791B01224A1344FB60FB685B7994
:1055100003F00F03DBB2032B01D0012334E0FB685F
:105520001B68BB60BB689A89BB685B899A4201D1E2
:10553000082329E0174B1B78DBB20133DAB2154B95
:105540001A70BB681A68BB681B899B0013443A68D1
:105550001A60BB681B8901339AB2BB681A81BB68A9
:105560009B8901339AB2BB689A81BB681A89BB6870
:105570005B899A4202D1BB6800221A81F868FFF762
:10558000D3FCFAF723FE002318461037BD4680BD32
:10559000A00900201505002080B400AF62B600BF4E
:1055A000BD465DF8047B704780B400AF72B600BFA3
:1055B000BD465DF8047B7047A0F11C0080F30988AC
:1055C000704700BF024B1B68024A116819607047A0
:1055D0002C040020300400200B4B19680B4A126881
:1055E00091420AD0EFF3098020E9F00F08601A60B9
:1055F0001068B0E8F00F80F30988054B00201870A0
:105600004EF0040E704700004809002044090020B5
:105610001505002080B586B000AF0346FB714B4BEB
:105620001B78DBB2002B01D003238BE0484B1B78A7
:10563000FA799A4201D3012384E0464B1B78DBB20E
:105640000133DAB2434B1A70FB79DB00424A134450
:10565000FB60FB689B781A462C2303FB02F33F4A4E
:1056600013447B617B69FF22DA71FB685B68002B66
:1056700008D1FB6800225A70FB68FF229A70FAF783
:10568000A5FD5EE0FB689B78FB72FB68DB78FA7A2D
:105690009A4219D1FB685B687B617B691B79FB745B
:1056A0000EE07B691B79FA7C9A4206D97B691B79EB
:1056B000FB747B699A79FB68DA707B695B6A7B6152
:1056C0007B69002BEDD107E0FB7A244A2C2101FBFA
:1056D00003F313441B79FB74FB68FF229A70FB6889
:1056E0001B78FA7A10461946FCF71CF8FB685B68D1
:1056F0007B617B695A6AFB685A607B691A79FB682F
:105700001A707B699A79FB689A707B691B79FA7CBD
:105710009A4208D07B691B791846FBF771FEFB7C27
:105720001846FBF711FE7B69FA7C1A717B6900222F
:105730005A627B6900229A627869FBF7B1FEFAF738
:1057400045FD002318461837BD4680BD14050020CE
:10575000E40A002015050020E80A0020500500207A
:1057600080B586B000AF78607B68DB79DB00374AB4
:1057700013443B617B685B6A002B07D17B689B6AA3
:10578000002B03D13B6900225A6027E07B685B6AEB
:10579000002B07D17B689B6A00225A627B6800223B
:1057A0009A621BE07B689B6A002B07D17B685B6A6F
:1057B00000229A627B6800225A620FE07B685B6A73
:1057C0007A68926A9A627B689B6A7A68526A5A62BD
:1057D0007B6800229A627B6800225A627B68FF2203
:1057E000DA713B69DA787B689B799A422BD13B6905
:1057F0005B687B603B691B78FB753B699A783B690A
:10580000DA700EE07B681B79FA7D9A4206D97B68D4
:105810001B79FB757B689A793B69DA707B685B6AF8
:105820007B607B68002BEDD13B699B78FB733B6908
:10583000FF229A70FA7BFB7D10461946FBF772FF38
:105840003B69FA7B9A701837BD4680BDE80A002094
:1058500080B584B000AF03460A46FB711346BB71A6
:105860001F4B1B78DBB20133DAB21D4B1A700023D9
:10587000FB732AE01B4B9B68FA7B012101FA02F2C1
:105880001340002B1ED1174B9B68FA7B012101FAB4
:1058900002F21343134A9360124B1B68B979FA7BE7
:1058A00001FA02F213430F4A13600E4B5B68F97959
:1058B000FA7B01FA02F213430A4A5360FAF786FCB4
:1058C000FB7B08E0FB7B0133FB73FB7B1F2BD1D9F8
:1058D000FAF77CFCFF2318461037BD4680BD00BF99
:1058E00015050020380B002080B58AB000AF0346B4
:1058F0003960FB71554B1B78DBB2002B01D00323C1
:10590000A0E0534B1B78DBB2002B01D0152399E0AC
:10591000FB791F2B01D9012394E04E4B9B68FA7948
:10592000012101FA02F21340002B01D1012389E089
:10593000474B1B78DBB20133DAB2454B1A70454B4B
:105940007B627B6A1B68FA79012101FA02F213403B
:10595000002B0FD07B6A1A687B6A5B68F97901209B
:1059600000FA01F10B40DB431A407B6A1A60FAF738
:105970002DFC66E0384B1B683B623B68002B2ED148
:10598000FB79012202FA03F31A4607F10C031846C9
:105990001146022200F0DEF83B6A02225A712F4BB8
:1059A00001221A70FAF712FC3B6A0022DA61284BD6
:1059B0001B78DBB20133DAB2254B1A707B6A1A68A6
:1059C000FB79012101FA03F319467B6A5B680B40FE
:1059D000DB431A407B6A1A60FAF7F8FB31E0FB7987
:1059E000012202FA03F31A4607F10C031846114686
:1059F000022200F0AFF8386A3968FEF7B7FFFAF70D
:105A0000E5FB3B6ADB69002B01D105231AE03B6A09
:105A10000022DA610E4B1B78DBB20133DAB20C4B99
:105A20001A707B6A1A68FB79012101FA03F319469F
:105A30007B6A5B680B40DB431A407B6A1A60FAF7AB
:105A4000C5FB002318462837BD4680BD140500203D
:105A500015050020380B00204809002016050020FD
:105A600080B584B000AF0346FB71384BBB60FB7957
:105A70001F2B01D9012364E0BB689B68FA790121DF
:105A800001FA02F21340002B01D1012359E0BB6857
:105A90001B68FA79012101FA02F21340002B01D0B0
:105AA00000234EE0BB681B68FA79012101FA02F27B
:105AB0001A43BB681A60264B1B78DBB20133DAB29B
:105AC000234B1A70BB68DB68FB6034E0FB681B7C0F
:105AD000002B17D1FB689A68BB681B681A40FB68EB
